{
  "address": "0xA376A0EA9d971C2fCf3b51C8BeCDd85fa894e8BC",
  "abi": [
    {
      "inputs": [
        {
          "internalType": "contract IEntryPoint",
          "name": "_entryPoint",
          "type": "address"
        },
        {
          "internalType": "contract ITokenEntryPoint",
          "name": "_tokenEntryPoint",
          "type": "address"
        },
        {
          "internalType": "address[]",
          "name": "_whitelistAddresses",
          "type": "address[]"
        }
      ],
      "stateMutability": "nonpayable",
      "type": "constructor"
    },
    {
      "anonymous": false,
      "inputs": [
        {
          "indexed": true,
          "internalType": "address",
          "name": "voucher",
          "type": "address"
        }
      ],
      "name": "CardCreated",
      "type": "event"
    },
    {
      "inputs": [],
      "name": "cardImplementation",
      "outputs": [
        {
          "internalType": "contract Card",
          "name": "",
          "type": "address"
        }
      ],
      "stateMutability": "view",
      "type": "function"
    },
    {
      "inputs": [
        {
          "internalType": "bytes32",
          "name": "cardHash",
          "type": "bytes32"
        }
      ],
      "name": "createCard",
      "outputs": [
        {
          "internalType": "contract Card",
          "name": "ret",
          "type": "address"
        }
      ],
      "stateMutability": "nonpayable",
      "type": "function"
    },
    {
      "inputs": [
        {
          "internalType": "bytes32",
          "name": "codeHash",
          "type": "bytes32"
        }
      ],
      "name": "getCardAddress",
      "outputs": [
        {
          "internalType": "address",
          "name": "",
          "type": "address"
        }
      ],
      "stateMutability": "view",
      "type": "function"
    },
    {
      "inputs": [
        {
          "internalType": "uint256",
          "name": "serial",
          "type": "uint256"
        }
      ],
      "name": "getCardHash",
      "outputs": [
        {
          "internalType": "bytes32",
          "name": "",
          "type": "bytes32"
        }
      ],
      "stateMutability": "view",
      "type": "function"
    },
    {
      "inputs": [
        {
          "internalType": "address",
          "name": "addr",
          "type": "address"
        }
      ],
      "name": "isWhitelisted",
      "outputs": [
        {
          "internalType": "bool",
          "name": "",
          "type": "bool"
        }
      ],
      "stateMutability": "view",
      "type": "function"
    },
    {
      "inputs": [],
      "name": "owner",
      "outputs": [
        {
          "internalType": "address",
          "name": "",
          "type": "address"
        }
      ],
      "stateMutability": "view",
      "type": "function"
    },
    {
      "inputs": [
        {
          "internalType": "contract Card",
          "name": "card",
          "type": "address"
        },
        {
          "internalType": "address",
          "name": "newOwner",
          "type": "address"
        }
      ],
      "name": "transferCardOwnership",
      "outputs": [],
      "stateMutability": "nonpayable",
      "type": "function"
    },
    {
      "inputs": [
        {
          "internalType": "address[]",
          "name": "addresses",
          "type": "address[]"
        }
      ],
      "name": "updateWhitelist",
      "outputs": [],
      "stateMutability": "nonpayable",
      "type": "function"
    },
    {
      "inputs": [
        {
          "internalType": "contract IWithdrawable",
          "name": "card",
          "type": "address"
        },
        {
          "internalType": "contract IERC20",
          "name": "token",
          "type": "address"
        },
        {
          "internalType": "address",
          "name": "to",
          "type": "address"
        },
        {
          "internalType": "uint256",
          "name": "amount",
          "type": "uint256"
        }
      ],
      "name": "withdraw",
      "outputs": [],
      "stateMutability": "nonpayable",
      "type": "function"
    }
  ],
  "transactionHash": "0xaf2144669ec5223fe527771903d3ce9e48358530bef267512a1eaaee5a4aa70d",
  "args": [
    "0x5FF137D4b0FDCD49DcA30c7CF57E578a026d2789",
    "0xBABCf159c4e3186cf48e4a48bC0AeC17CF9d90FE",
    []
  ],
  "numDeployments": 1,
  "solcInputHash": "68ccfed3b6568e9025eac25bafe10d0e",
  "bytecode": "0x60a060405260006001553480156200001657600080fd5b50604051620037cd380380620037cd83398101604081905262000039916200018a565b828260405162000049906200013b565b6001600160a01b03928316815291166020820152604001604051809103906000f0801580156200007d573d6000803e3d6000fd5b506001600160a01b031660805260006001556200009a81620000b5565b5050600080546001600160a01b0319163317905550620002c8565b60018054906000620000c7836200028a565b919050555060005b8151811015620001375760015460026000848481518110620000f557620000f5620002b2565b60200260200101516001600160a01b03166001600160a01b031681526020019081526020016000208190555080806200012e906200028a565b915050620000cf565b5050565b612754806200107983390190565b6001600160a01b03811681146200015f57600080fd5b50565b634e487b7160e01b600052604160045260246000fd5b8051620001858162000149565b919050565b600080600060608486031215620001a057600080fd5b8351620001ad8162000149565b80935050602080850151620001c28162000149565b60408601519093506001600160401b0380821115620001e057600080fd5b818701915087601f830112620001f557600080fd5b8151818111156200020a576200020a62000162565b8060051b604051601f19603f8301168101818110858211171562000232576200023262000162565b60405291825284820192508381018501918a8311156200025157600080fd5b938501935b828510156200027a576200026a8562000178565b8452938501939285019262000256565b8096505050505050509250925092565b600060018201620002ab57634e487b7160e01b600052601160045260246000fd5b5060010190565b634e487b7160e01b600052603260045260246000fd5b608051610d87620002f26000396000818161017c015281816102b801526103f30152610d876000f3fe60806040523480156200001157600080fd5b50600436106200009f5760003560e01c80638da5cb5b116200006e5780638da5cb5b146200014b578063943c9cbe146200015f5780639a79c18e14620001765780639b77940f146200019e578063c55d1c2714620001c457600080fd5b80630b620b8114620000a457806315aba27414620000bd5780633537721414620000f15780633af32abf1462000108575b600080fd5b620000bb620000b5366004620006b3565b620001db565b005b620000d4620000ce3660046200070b565b6200024d565b6040516001600160a01b0390911681526020015b60405180910390f35b620000bb620001023660046200073b565b620003a5565b6200013a620001193660046200080e565b6001546001600160a01b039091166000908152600260205260409020541490565b6040519015158152602001620000e8565b600054620000d4906001600160a01b031681565b620000d4620001703660046200070b565b620003bd565b620000d47f000000000000000000000000000000000000000000000000000000000000000081565b620001b5620001af3660046200070b565b62000493565b604051908152602001620000e8565b620000bb620001d53660046200082e565b620004eb565b6040516361d9ad3f60e11b81526001600160a01b03848116600483015283811660248301526044820183905285169063c3b35a7e90606401600060405180830381600087803b1580156200022e57600080fd5b505af115801562000243573d6000803e3d6000fd5b5050505050505050565b6000806200025b83620003bd565b6040519091506001600160a01b038216907f5a88fac48723245815c0b404c9689ef9de8251085a0232d064c93226aa190fb790600090a26001600160a01b0381163b8015620002ab575092915050565b60405130602482015284907f00000000000000000000000000000000000000000000000000000000000000009060440160408051601f198184030181529181526020820180516001600160e01b031663189acdbd60e31b1790525162000311906200067d565b6200031e92919062000892565b8190604051809103906000f59050801580156200033f573d6000803e3d6000fd5b5060405163f2fde38b60e01b81523060048201529093506001600160a01b0384169063f2fde38b90602401600060405180830381600087803b1580156200038557600080fd5b505af11580156200039a573d6000803e3d6000fd5b505050505050919050565b620003af62000556565b620003ba81620005b7565b50565b60006200048d8260405180602001620003d6906200067d565b601f1982820381018352601f9091011660408190523060248201527f00000000000000000000000000000000000000000000000000000000000000009060440160408051601f19818403018152918152602080830180516001600160e01b031663189acdbd60e31b1790529051620004519392910162000892565b60408051601f1981840301815290829052620004719291602001620008d6565b604051602081830303815290604052805190602001206200063d565b92915050565b6000814630604051602001620004ce93929190928352602083019190915260601b6bffffffffffffffffffffffff1916604082015260540190565b604051602081830303815290604052805190602001209050919050565b620004f562000556565b60405163f2fde38b60e01b81526001600160a01b03828116600483015283169063f2fde38b90602401600060405180830381600087803b1580156200053957600080fd5b505af11580156200054e573d6000803e3d6000fd5b505050505050565b6000546001600160a01b03163314620005b55760405162461bcd60e51b815260206004820181905260248201527f4f776e61626c653a2063616c6c6572206973206e6f7420746865206f776e6572604482015260640160405180910390fd5b565b60018054906000620005c98362000909565b919050555060005b8151811015620006395760015460026000848481518110620005f757620005f762000931565b60200260200101516001600160a01b03166001600160a01b03168152602001908152602001600020819055508080620006309062000909565b915050620005d1565b5050565b60006200064c83833062000653565b9392505050565b6000604051836040820152846020820152828152600b8101905060ff815360559020949350505050565b61040a806200094883390190565b6001600160a01b0381168114620003ba57600080fd5b8035620006ae816200068b565b919050565b60008060008060808587031215620006ca57600080fd5b8435620006d7816200068b565b93506020850135620006e9816200068b565b92506040850135620006fb816200068b565b9396929550929360600135925050565b6000602082840312156200071e57600080fd5b5035919050565b634e487b7160e01b600052604160045260246000fd5b600060208083850312156200074f57600080fd5b823567ffffffffffffffff808211156200076857600080fd5b818501915085601f8301126200077d57600080fd5b81358181111562000792576200079262000725565b8060051b604051601f19603f83011681018181108582111715620007ba57620007ba62000725565b604052918252848201925083810185019188831115620007d957600080fd5b938501935b828510156200080257620007f285620006a1565b84529385019392850192620007de565b98975050505050505050565b6000602082840312156200082157600080fd5b81356200064c816200068b565b600080604083850312156200084257600080fd5b82356200084f816200068b565b9150602083013562000861816200068b565b809150509250929050565b60005b83811015620008895781810151838201526020016200086f565b50506000910152565b60018060a01b03831681526040602082015260008251806040840152620008c18160608501602087016200086c565b601f01601f1916919091016060019392505050565b60008351620008ea8184602088016200086c565b835190830190620009008183602088016200086c565b01949350505050565b6000600182016200092a57634e487b7160e01b600052601160045260246000fd5b5060010190565b634e487b7160e01b600052603260045260246000fdfe608060405260405161040a38038061040a83398101604081905261002291610268565b61002c8282610033565b5050610352565b61003c82610092565b6040516001600160a01b038316907fbc7cd75a20ee27fd9adebab32041f755214dbc6bffa90cc0225b39da2e5c2d3b90600090a280511561008657610081828261010e565b505050565b61008e610185565b5050565b806001600160a01b03163b6000036100cd57604051634c9c8ce360e01b81526001600160a01b03821660048201526024015b60405180910390fd5b7f360894a13ba1a3210667c828492db98dca3e2076cc3735a920a3ca505d382bbc80546001600160a01b0319166001600160a01b0392909216919091179055565b6060600080846001600160a01b03168460405161012b9190610336565b600060405180830381855af49150503d8060008114610166576040519150601f19603f3d011682016040523d82523d6000602084013e61016b565b606091505b50909250905061017c8583836101a6565b95945050505050565b34156101a45760405163b398979f60e01b815260040160405180910390fd5b565b6060826101bb576101b682610205565b6101fe565b81511580156101d257506001600160a01b0384163b155b156101fb57604051639996b31560e01b81526001600160a01b03851660048201526024016100c4565b50805b9392505050565b8051156102155780518082602001fd5b604051630a12f52160e11b815260040160405180910390fd5b634e487b7160e01b600052604160045260246000fd5b60005b8381101561025f578181015183820152602001610247565b50506000910152565b6000806040838503121561027b57600080fd5b82516001600160a01b038116811461029257600080fd5b60208401519092506001600160401b03808211156102af57600080fd5b818501915085601f8301126102c357600080fd5b8151818111156102d5576102d561022e565b604051601f8201601f19908116603f011681019083821181831017156102fd576102fd61022e565b8160405282815288602084870101111561031657600080fd5b610327836020830160208801610244565b80955050505050509250929050565b60008251610348818460208701610244565b9190910192915050565b60aa806103606000396000f3fe6080604052600a600c565b005b60186014601a565b6051565b565b6000604c7f360894a13ba1a3210667c828492db98dca3e2076cc3735a920a3ca505d382bbc546001600160a01b031690565b905090565b3660008037600080366000845af43d6000803e808015606f573d6000f35b3d6000fdfea2646970667358221220f038e5386f37d7c294910e36c8834558bc963a25cf018593b31ef79e0554f56964736f6c63430008140033a26469706673582212209ad27e98a95cba96e640cc198fce2314373dda123e58fbdaa78d185b0b62129964736f6c6343000814003360e0604052306080523480156200001557600080fd5b506040516200275438038062002754833981016040819052620000389162000127565b6001600160a01b0380831660a052811660c052620000556200005d565b505062000166565b7ff0c57e16840df040f15088dc2f81fe391c3923bec73e23a9662efc9c229c6a00805468010000000000000000900460ff1615620000ae5760405163f92ee8a960e01b815260040160405180910390fd5b80546001600160401b03908116146200010e5780546001600160401b0319166001600160401b0390811782556040519081527fc7f505b2f371ae2175ee4913f4499e1f2633a7b5936321eed1cdaeb6115181d29060200160405180910390a15b50565b6001600160a01b03811681146200010e57600080fd5b600080604083850312156200013b57600080fd5b8251620001488162000111565b60208401519092506200015b8162000111565b809150509250929050565b60805160a05160c05161256a620001ea60003960008181610407015281816105a7015261128e0152600081816103b401528181610845015281816108cd015281816109b601528181610d1301528181610ece0152818161124701528181611395015261183c01526000818161157d015281816115a601526116d0015261256a6000f3fe6080604052600436106101845760003560e01c8063ad3cb1cc116100d1578063c3b35a7e1161008a578063f23a6e6111610064578063f23a6e61146104c4578063f2fde38b146104f1578063f3fef3a314610511578063fff35b721461053157600080fd5b8063c3b35a7e1461046f578063c4d66de81461048f578063d087d288146104af57600080fd5b8063ad3cb1cc14610367578063b0d691fe146103a5578063b61d27f6146103d8578063bb503206146103f8578063bc197c811461042b578063c399ec881461045a57600080fd5b80633a871cdd1161013e5780634f1ef286116101185780634f1ef286146102e757806352d1902d146102fa5780638da5cb5b1461030f57806393e59dc11461034757600080fd5b80633a871cdd146102915780634a58db19146102bf5780634d44560d146102c757600080fd5b806223de291461019057806301ffc9a7146101b75780630b699abe146101ec578063150b7a021461020c5780631626ba7e1461025157806318dfb3c71461027157600080fd5b3661018b57005b600080fd5b34801561019c57600080fd5b506101b56101ab366004611d78565b5050505050505050565b005b3480156101c357600080fd5b506101d76101d2366004611e28565b610551565b60405190151581526020015b60405180910390f35b3480156101f857600080fd5b506101b5610207366004611e52565b6105a3565b34801561021857600080fd5b50610238610227366004611e6f565b630a85bd0160e11b95945050505050565b6040516001600160e01b031990911681526020016101e3565b34801561025d57600080fd5b5061023861026c366004611ee1565b6106a7565b34801561027d57600080fd5b506101b561028c366004611f70565b610727565b34801561029d57600080fd5b506102b16102ac366004611ff4565b610824565b6040519081526020016101e3565b6101b5610843565b3480156102d357600080fd5b506101b56102e2366004612041565b6108c3565b6101b56102f5366004612083565b61094c565b34801561030657600080fd5b506102b1610967565b34801561031b57600080fd5b5060005461032f906001600160a01b031681565b6040516001600160a01b0390911681526020016101e3565b34801561035357600080fd5b5060015461032f906001600160a01b031681565b34801561037357600080fd5b50610398604051806040016040528060058152602001640352e302e360dc1b81525081565b6040516101e3919061216a565b3480156103b157600080fd5b507f000000000000000000000000000000000000000000000000000000000000000061032f565b3480156103e457600080fd5b506101b56103f336600461219d565b610984565b34801561040457600080fd5b507f000000000000000000000000000000000000000000000000000000000000000061032f565b34801561043757600080fd5b506102386104463660046121ec565b63bc197c8160e01b98975050505050505050565b34801561046657600080fd5b506102b1610996565b34801561047b57600080fd5b506101b561048a366004612289565b610a27565b34801561049b57600080fd5b506101b56104aa366004611e52565b610bd4565b3480156104bb57600080fd5b506102b1610cec565b3480156104d057600080fd5b506102386104df3660046122ca565b63f23a6e6160e01b9695505050505050565b3480156104fd57600080fd5b506101b561050c366004611e52565b610d42565b34801561051d57600080fd5b506101b561052c366004612041565b610d56565b34801561053d57600080fd5b506101d761054c366004612345565b610eaa565b60006001600160e01b03198216630a85bd0160e11b148061058257506001600160e01b03198216630271189760e51b145b8061059d57506001600160e01b031982166301ffc9a760e01b145b92915050565b60007f00000000000000000000000000000000000000000000000000000000000000009050806001600160a01b0316638da5cb5b6040518163ffffffff1660e01b8152600401602060405180830381865afa158015610606573d6000803e3d6000fd5b505050506040513d601f19601f8201168201806040525081019061062a9190612389565b6001600160a01b0316336001600160a01b03161461069a5760405162461bcd60e51b815260206004820152602260248201527f4f776e61626c653a206e6f7420546f6b656e456e747279506f696e74206f776e60448201526132b960f11b60648201526084015b60405180910390fd5b6106a382610f59565b5050565b6000806106ea8585858080601f016020809104026020016040519081016040528093929190818152602001838380828437600092019190915250610fe092505050565b6000549091506001600160a01b03908116908216036107135750630b135d3f60e11b9050610720565b506001600160e01b031990505b9392505050565b61072f61123c565b808381146107755760405162461bcd60e51b815260206004820152601360248201527277726f6e67206172726179206c656e6774687360681b6044820152606401610691565b60005b8181101561081c5761080a868683818110610795576107956123a6565b90506020020160208101906107aa9190611e52565b60008686858181106107be576107be6123a6565b90506020028101906107d091906123bc565b8080601f01602080910402602001604051908101604052809392919081815260200183838082843760009201919091525061131a92505050565b8061081481612418565b915050610778565b505050505050565b600061082e61138a565b6108388484611402565b9050610720826114a8565b7f000000000000000000000000000000000000000000000000000000000000000060405163b760faf960e01b81523060048201526001600160a01b03919091169063b760faf99034906024016000604051808303818588803b1580156108a857600080fd5b505af11580156108bc573d6000803e3d6000fd5b5050505050565b6108cb6114f5565b7f000000000000000000000000000000000000000000000000000000000000000060405163040b850f60e31b81526001600160a01b03848116600483015260248201849052919091169063205c287890604401600060405180830381600087803b15801561093857600080fd5b505af115801561081c573d6000803e3d6000fd5b610954611572565b61095d82611600565b6106a38282611608565b60006109716116c5565b506000805160206124f583398151915290565b6109908484848461170e565b50505050565b6040516370a0823160e01b81523060048201526000906001600160a01b037f000000000000000000000000000000000000000000000000000000000000000016906370a08231906024015b602060405180830381865afa1580156109fe573d6000803e3d6000fd5b505050506040513d601f19601f82011682018060405250810190610a229190612431565b905090565b6000546001600160a01b03163314610a815760405162461bcd60e51b815260206004820152601f60248201527f7769746864726177546f3a2073656e646572206973206e6f74206f776e6572006044820152606401610691565b600154604051633af32abf60e01b81526001600160a01b03848116600483015290911690633af32abf90602401602060405180830381865afa158015610acb573d6000803e3d6000fd5b505050506040513d601f19601f82011682018060405250810190610aef919061244a565b610b0b5760405162461bcd60e51b81526004016106919061246c565b6001600160a01b038316610b615760405162461bcd60e51b815260206004820152601f60248201527f77697468647261773a20746f6b656e2061646472657373206973207a65726f006044820152606401610691565b60405163a9059cbb60e01b81526001600160a01b0383811660048301526024820183905284169063a9059cbb906044016020604051808303816000875af1158015610bb0573d6000803e3d6000fd5b505050506040513d601f19601f82011682018060405250810190610990919061244a565b7ff0c57e16840df040f15088dc2f81fe391c3923bec73e23a9662efc9c229c6a008054600160401b810460ff1615906001600160401b0316600081158015610c195750825b90506000826001600160401b03166001148015610c355750303b155b905081158015610c43575080155b15610c615760405163f92ee8a960e01b815260040160405180910390fd5b845467ffffffffffffffff191660011785558315610c8b57845460ff60401b1916600160401b1785555b610c956000611757565b610c9f3387611807565b831561081c57845460ff60401b19168555604051600181527fc7f505b2f371ae2175ee4913f4499e1f2633a7b5936321eed1cdaeb6115181d29060200160405180910390a1505050505050565b604051631aab3f0d60e11b8152306004820152600060248201819052906001600160a01b037f000000000000000000000000000000000000000000000000000000000000000016906335567e1a906044016109e1565b610d4a6114f5565b610d5381610f59565b50565b600154604051633af32abf60e01b81523360048201526001600160a01b0390911690633af32abf90602401602060405180830381865afa158015610d9e573d6000803e3d6000fd5b505050506040513d601f19601f82011682018060405250810190610dc2919061244a565b610dde5760405162461bcd60e51b81526004016106919061246c565b6001600160a01b038216610e345760405162461bcd60e51b815260206004820152601f60248201527f77697468647261773a20746f6b656e2061646472657373206973207a65726f006044820152606401610691565b60405163a9059cbb60e01b8152336004820152602481018290526001600160a01b0383169063a9059cbb906044016020604051808303816000875af1158015610e81573d6000803e3d6000fd5b505050506040513d601f19601f82011682018060405250810190610ea5919061244a565b505050565b600080610eb78484611402565b1590508015610720576000602085013560401c90507f0000000000000000000000000000000000000000000000000000000000000000604051630bd28e3b60e01b81526001600160c01b03831660048201526001600160a01b039190911690630bd28e3b90602401600060405180830381600087803b158015610f3957600080fd5b505af1158015610f4d573d6000803e3d6000fd5b50505050509392505050565b6001600160a01b038116610fbe5760405162461bcd60e51b815260206004820152602660248201527f4f776e61626c653a206e6577206f776e657220697320746865207a65726f206160448201526564647265737360d01b6064820152608401610691565b600080546001600160a01b0319166001600160a01b0392909216919091179055565b600081516041146110475760405162461bcd60e51b815260206004820152603a602482015260008051602061251583398151915260448201527f3a20696e76616c6964207369676e6174757265206c656e6774680000000000006064820152608401610691565b60008260408151811061105c5761105c6123a6565b016020015160f81c905060006110728482611886565b90506000611081856020611886565b90506fa2a8918ca85bafe22016d0b997e4df60600160ff1b038111156110fd5760405162461bcd60e51b815260206004820152603d602482015260008051602061251583398151915260448201527f3a20696e76616c6964207369676e6174757265202773272076616c75650000006064820152608401610691565b8260ff16601b1415801561111557508260ff16601c14155b156111765760405162461bcd60e51b815260206004820152603d602482015260008051602061251583398151915260448201527f3a20696e76616c6964207369676e6174757265202776272076616c75650000006064820152608401610691565b60408051600081526020810180835288905260ff851691810191909152606081018390526080810182905260019060a0016020604051602081039080840390855afa1580156111c9573d6000803e3d6000fd5b5050604051601f1901519450506001600160a01b0384166112335760405162461bcd60e51b8152602060048201526030602482015260008051602061251583398151915260448201526f1d1024a72b20a624a22fa9a4a3a722a960811b6064820152608401610691565b50505092915050565b336001600160a01b037f000000000000000000000000000000000000000000000000000000000000000016148061127d57506000546001600160a01b031633145b806112b05750336001600160a01b037f000000000000000000000000000000000000000000000000000000000000000016145b6113185760405162461bcd60e51b815260206004820152603360248201527f6163636f756e743a206e6f74204f776e6572206f7220456e747279506f696e74604482015272081bdc88151bdad95b915b9d1c9e541bda5b9d606a1b6064820152608401610691565b565b600080846001600160a01b0316848460405161133691906124af565b60006040518083038185875af1925050503d8060008114611373576040519150601f19603f3d011682016040523d82523d6000602084013e611378565b606091505b5091509150816108bc57805160208201fd5b336001600160a01b037f000000000000000000000000000000000000000000000000000000000000000016146113185760405162461bcd60e51b815260206004820152601c60248201527f6163636f756e743a206e6f742066726f6d20456e747279506f696e74000000006044820152606401610691565b7f19457468657265756d205369676e6564204d6573736167653a0a3332000000006000908152601c829052603c812061147f6114426101408601866123bc565b8080601f01602080910402602001604051908101604052809392919081815260200183838082843760009201919091525085939250506118ec9050565b6000546001600160a01b0390811691161461149e57600191505061059d565b5060009392505050565b8015610d5357604051600090339060001990849084818181858888f193505050503d80600081146108bc576040519150601f19603f3d011682016040523d82523d6000602084013e6108bc565b6000546001600160a01b031633148061150d57503033145b6113185760405162461bcd60e51b815260206004820152603060248201527f4f776e61626c653a2063616c6c6572206973206e6f7420746865206f776e657260448201526f081bdc881d1a194818dbdb9d1c9858dd60821b6064820152608401610691565b306001600160a01b037f00000000000000000000000000000000000000000000000000000000000000001614806115e257507f00000000000000000000000000000000000000000000000000000000000000006001600160a01b03166115d6611916565b6001600160a01b031614155b156113185760405163703e46dd60e11b815260040160405180910390fd5b610d536114f5565b816001600160a01b03166352d1902d6040518163ffffffff1660e01b8152600401602060405180830381865afa925050508015611662575060408051601f3d908101601f1916820190925261165f91810190612431565b60015b61168a57604051634c9c8ce360e01b81526001600160a01b0383166004820152602401610691565b6000805160206124f583398151915281146116bb57604051632a87526960e21b815260048101829052602401610691565b610ea58383611932565b306001600160a01b037f000000000000000000000000000000000000000000000000000000000000000016146113185760405163703e46dd60e11b815260040160405180910390fd5b61171661123c565b610990848484848080601f01602080910402602001604051908101604052809392919081815260200183838082843760009201919091525061131a92505050565b61175f611988565b6002600061176b611916565b6001600160a01b0316815260208101919091526040016000205460ff16156117ce5760405162461bcd60e51b815260206004820152601660248201527510d85c990e88185b1c9958591e481b5a59dc985d195960521b6044820152606401610691565b6001600260006117dc611916565b6001600160a01b031681526020810191909152604001600020805460ff191691151591909117905550565b600080546001600160a01b03199081166001600160a01b038581169182178455600180549093168582161790925560405190927f0000000000000000000000000000000000000000000000000000000000000000909216917f4cf8bb72ce5786909e97e82d54165a323ca95259d7eb0b26607d4b5ea86066db91a35050565b60006118938260206124cb565b835110156118e35760405162461bcd60e51b815260206004820181905260248201527f72656164427974657333323a20696e76616c69642064617461206c656e6774686044820152606401610691565b50016020015190565b6000806000806118fc86866119d1565b92509250925061190c8282611a1e565b5090949350505050565b6000805160206124f5833981519152546001600160a01b031690565b61193b82611ad7565b6040516001600160a01b038316907fbc7cd75a20ee27fd9adebab32041f755214dbc6bffa90cc0225b39da2e5c2d3b90600090a280511561198057610ea58282611b3c565b6106a3611bb2565b7ff0c57e16840df040f15088dc2f81fe391c3923bec73e23a9662efc9c229c6a0054600160401b900460ff1661131857604051631afcd79f60e31b815260040160405180910390fd5b60008060008351604103611a0b5760208401516040850151606086015160001a6119fd88828585611bd1565b955095509550505050611a17565b50508151600091506002905b9250925092565b6000826003811115611a3257611a326124de565b03611a3b575050565b6001826003811115611a4f57611a4f6124de565b03611a6d5760405163f645eedf60e01b815260040160405180910390fd5b6002826003811115611a8157611a816124de565b03611aa25760405163fce698f760e01b815260048101829052602401610691565b6003826003811115611ab657611ab66124de565b036106a3576040516335e2f38360e21b815260048101829052602401610691565b806001600160a01b03163b600003611b0d57604051634c9c8ce360e01b81526001600160a01b0382166004820152602401610691565b6000805160206124f583398151915280546001600160a01b0319166001600160a01b0392909216919091179055565b6060600080846001600160a01b031684604051611b5991906124af565b600060405180830381855af49150503d8060008114611b94576040519150601f19603f3d011682016040523d82523d6000602084013e611b99565b606091505b5091509150611ba9858383611c96565b95945050505050565b34156113185760405163b398979f60e01b815260040160405180910390fd5b600080806fa2a8918ca85bafe22016d0b997e4df60600160ff1b03841115611c025750600091506003905082611c8c565b604080516000808252602082018084528a905260ff891692820192909252606081018790526080810186905260019060a0016020604051602081039080840390855afa158015611c56573d6000803e3d6000fd5b5050604051601f1901519150506001600160a01b038116611c8257506000925060019150829050611c8c565b9250600091508190505b9450945094915050565b606082611cab57611ca682611cf2565b610720565b8151158015611cc257506001600160a01b0384163b155b15611ceb57604051639996b31560e01b81526001600160a01b0385166004820152602401610691565b5080610720565b805115611d025780518082602001fd5b604051630a12f52160e11b815260040160405180910390fd5b6001600160a01b0381168114610d5357600080fd5b60008083601f840112611d4257600080fd5b5081356001600160401b03811115611d5957600080fd5b602083019150836020828501011115611d7157600080fd5b9250929050565b60008060008060008060008060c0898b031215611d9457600080fd5b8835611d9f81611d1b565b97506020890135611daf81611d1b565b96506040890135611dbf81611d1b565b95506060890135945060808901356001600160401b0380821115611de257600080fd5b611dee8c838d01611d30565b909650945060a08b0135915080821115611e0757600080fd5b50611e148b828c01611d30565b999c989b5096995094979396929594505050565b600060208284031215611e3a57600080fd5b81356001600160e01b03198116811461072057600080fd5b600060208284031215611e6457600080fd5b813561072081611d1b565b600080600080600060808688031215611e8757600080fd5b8535611e9281611d1b565b94506020860135611ea281611d1b565b93506040860135925060608601356001600160401b03811115611ec457600080fd5b611ed088828901611d30565b969995985093965092949392505050565b600080600060408486031215611ef657600080fd5b8335925060208401356001600160401b03811115611f1357600080fd5b611f1f86828701611d30565b9497909650939450505050565b60008083601f840112611f3e57600080fd5b5081356001600160401b03811115611f5557600080fd5b6020830191508360208260051b8501011115611d7157600080fd5b60008060008060408587031215611f8657600080fd5b84356001600160401b0380821115611f9d57600080fd5b611fa988838901611f2c565b90965094506020870135915080821115611fc257600080fd5b50611fcf87828801611f2c565b95989497509550505050565b60006101608284031215611fee57600080fd5b50919050565b60008060006060848603121561200957600080fd5b83356001600160401b0381111561201f57600080fd5b61202b86828701611fdb565b9660208601359650604090950135949350505050565b6000806040838503121561205457600080fd5b823561205f81611d1b565b946020939093013593505050565b634e487b7160e01b600052604160045260246000fd5b6000806040838503121561209657600080fd5b82356120a181611d1b565b915060208301356001600160401b03808211156120bd57600080fd5b818501915085601f8301126120d157600080fd5b8135818111156120e3576120e361206d565b604051601f8201601f19908116603f0116810190838211818310171561210b5761210b61206d565b8160405282815288602084870101111561212457600080fd5b8260208601602083013760006020848301015280955050505050509250929050565b60005b83811015612161578181015183820152602001612149565b50506000910152565b6020815260008251806020840152612189816040850160208701612146565b601f01601f19169190910160400192915050565b600080600080606085870312156121b357600080fd5b84356121be81611d1b565b93506020850135925060408501356001600160401b038111156121e057600080fd5b611fcf87828801611d30565b60008060008060008060008060a0898b03121561220857600080fd5b883561221381611d1b565b9750602089013561222381611d1b565b965060408901356001600160401b038082111561223f57600080fd5b61224b8c838d01611f2c565b909850965060608b013591508082111561226457600080fd5b6122708c838d01611f2c565b909650945060808b0135915080821115611e0757600080fd5b60008060006060848603121561229e57600080fd5b83356122a981611d1b565b925060208401356122b981611d1b565b929592945050506040919091013590565b60008060008060008060a087890312156122e357600080fd5b86356122ee81611d1b565b955060208701356122fe81611d1b565b9450604087013593506060870135925060808701356001600160401b0381111561232757600080fd5b61233389828a01611d30565b979a9699509497509295939492505050565b6000806040838503121561235857600080fd5b82356001600160401b0381111561236e57600080fd5b61237a85828601611fdb565b95602094909401359450505050565b60006020828403121561239b57600080fd5b815161072081611d1b565b634e487b7160e01b600052603260045260246000fd5b6000808335601e198436030181126123d357600080fd5b8301803591506001600160401b038211156123ed57600080fd5b602001915036819003821315611d7157600080fd5b634e487b7160e01b600052601160045260246000fd5b60006001820161242a5761242a612402565b5060010190565b60006020828403121561244357600080fd5b5051919050565b60006020828403121561245c57600080fd5b8151801515811461072057600080fd5b60208082526023908201527f77697468647261773a2073656e646572206973206e6f742077686974656c69736040820152621d195960ea1b606082015260800190565b600082516124c1818460208701612146565b9190910192915050565b8082018082111561059d5761059d612402565b634e487b7160e01b600052602160045260246000fdfe360894a13ba1a3210667c828492db98dca3e2076cc3735a920a3ca505d382bbc5369676e617475726556616c696461746f72237265636f7665725369676e6572a264697066735822122056b05fbdfe87f3a745dad3447dc7d79b7ce590b3ab4e959891990eecf75e189764736f6c63430008140033",
  "devdoc": {
    "details": "A factory contract that creates Card contracts.",
    "kind": "dev",
    "methods": {
      "getCardHash(uint256)": {
        "details": "Calculates the hash value for a given card. This function should only be used to test hash values.",
        "params": {
          "serial": "The serial to be hashed."
        },
        "returns": {
          "_0": "The calculated hash value."
        }
      },
      "isWhitelisted(address)": {
        "details": "Checks if an address is in the whitelist.",
        "params": {
          "addr": "The address to check."
        },
        "returns": {
          "_0": "A boolean indicating whether the address is in the whitelist."
        }
      },
      "updateWhitelist(address[])": {
        "details": "Updates the whitelist.",
        "params": {
          "addresses": "The addresses to update the whitelist."
        }
      }
    },
    "title": "CardManager",
    "version": 1
  },
  "userdoc": {
    "kind": "user",
    "methods": {
      "getCardAddress(bytes32)": {
        "notice": "calculate the counterfactual address of this card as it would be returned by createCard()"
      }
    },
    "version": 1
  },
  "storageLayout": {
    "storage": [
      {
        "astId": 5736,
        "contract": "contracts/cards/CardManager.sol:CardManager",
        "label": "owner",
        "offset": 0,
        "slot": "0",
        "type": "t_address"
      },
      {
        "astId": 5759,
        "contract": "contracts/cards/CardManager.sol:CardManager",
        "label": "_whitelistVersion",
        "offset": 0,
        "slot": "1",
        "type": "t_uint256"
      },
      {
        "astId": 5763,
        "contract": "contracts/cards/CardManager.sol:CardManager",
        "label": "_whitelist",
        "offset": 0,
        "slot": "2",
        "type": "t_mapping(t_address,t_uint256)"
      }
    ],
    "types": {
      "t_address": {
        "encoding": "inplace",
        "label": "address",
        "numberOfBytes": "20"
      },
      "t_mapping(t_address,t_uint256)": {
        "encoding": "mapping",
        "key": "t_address",
        "label": "mapping(address => uint256)",
        "numberOfBytes": "32",
        "value": "t_uint256"
      },
      "t_uint256": {
        "encoding": "inplace",
        "label": "uint256",
        "numberOfBytes": "32"
      }
    }
  }
}